{
  "_format": "hh-sol-artifact-1",
  "contractName": "PredictionMarketHelper",
  "sourceName": "contracts/helperContract.sol",
  "abi": [
    {
      "inputs": [
        {
          "internalType": "address",
          "name": "_predictionMarket",
          "type": "address"
        }
      ],
      "stateMutability": "nonpayable",
      "type": "constructor"
    },
    {
      "inputs": [
        {
          "internalType": "uint256",
          "name": "marketId",
          "type": "uint256"
        },
        {
          "internalType": "address",
          "name": "user",
          "type": "address"
        }
      ],
      "name": "_checkPosition",
      "outputs": [
        {
          "internalType": "bool",
          "name": "hasPosition",
          "type": "bool"
        }
      ],
      "stateMutability": "view",
      "type": "function"
    },
    {
      "inputs": [
        {
          "internalType": "uint256",
          "name": "marketId",
          "type": "uint256"
        },
        {
          "internalType": "address",
          "name": "user",
          "type": "address"
        }
      ],
      "name": "_getPosition",
      "outputs": [
        {
          "components": [
            {
              "internalType": "uint256",
              "name": "marketId",
              "type": "uint256"
            },
            {
              "internalType": "uint256",
              "name": "yesBalance",
              "type": "uint256"
            },
            {
              "internalType": "uint256",
              "name": "noBalance",
              "type": "uint256"
            },
            {
              "internalType": "uint256",
              "name": "totalInvested",
              "type": "uint256"
            },
            {
              "internalType": "uint256",
              "name": "bnbInvested",
              "type": "uint256"
            }
          ],
          "internalType": "struct PredictionMarketHelper.UserPosition",
          "name": "position",
          "type": "tuple"
        }
      ],
      "stateMutability": "view",
      "type": "function"
    },
    {
      "inputs": [
        {
          "internalType": "uint256",
          "name": "marketId",
          "type": "uint256"
        }
      ],
      "name": "_getTradingInfoSafe",
      "outputs": [
        {
          "components": [
            {
              "internalType": "uint256",
              "name": "yesMultiplier",
              "type": "uint256"
            },
            {
              "internalType": "uint256",
              "name": "noMultiplier",
              "type": "uint256"
            },
            {
              "internalType": "uint256",
              "name": "yesPrice",
              "type": "uint256"
            },
            {
              "internalType": "uint256",
              "name": "noPrice",
              "type": "uint256"
            },
            {
              "internalType": "uint256",
              "name": "totalLiquidity",
              "type": "uint256"
            }
          ],
          "internalType": "struct PredictionMarketHelper.TradingInfo",
          "name": "info",
          "type": "tuple"
        }
      ],
      "stateMutability": "view",
      "type": "function"
    },
    {
      "inputs": [
        {
          "internalType": "uint256",
          "name": "marketId",
          "type": "uint256"
        },
        {
          "internalType": "address[]",
          "name": "users",
          "type": "address[]"
        }
      ],
      "name": "batchGetMarketInvestments",
      "outputs": [
        {
          "internalType": "uint256[]",
          "name": "investments",
          "type": "uint256[]"
        }
      ],
      "stateMutability": "view",
      "type": "function"
    },
    {
      "inputs": [
        {
          "internalType": "uint256[]",
          "name": "marketIds",
          "type": "uint256[]"
        }
      ],
      "name": "batchGetTradingInfo",
      "outputs": [
        {
          "components": [
            {
              "internalType": "uint256",
              "name": "yesMultiplier",
              "type": "uint256"
            },
            {
              "internalType": "uint256",
              "name": "noMultiplier",
              "type": "uint256"
            },
            {
              "internalType": "uint256",
              "name": "yesPrice",
              "type": "uint256"
            },
            {
              "internalType": "uint256",
              "name": "noPrice",
              "type": "uint256"
            },
            {
              "internalType": "uint256",
              "name": "totalLiquidity",
              "type": "uint256"
            }
          ],
          "internalType": "struct PredictionMarketHelper.TradingInfo[]",
          "name": "infos",
          "type": "tuple[]"
        }
      ],
      "stateMutability": "view",
      "type": "function"
    },
    {
      "inputs": [
        {
          "internalType": "uint256",
          "name": "marketId",
          "type": "uint256"
        }
      ],
      "name": "canDispute",
      "outputs": [
        {
          "internalType": "bool",
          "name": "canDisputeMarket",
          "type": "bool"
        }
      ],
      "stateMutability": "view",
      "type": "function"
    },
    {
      "inputs": [
        {
          "internalType": "uint256",
          "name": "marketId",
          "type": "uint256"
        }
      ],
      "name": "canRequestResolution",
      "outputs": [
        {
          "internalType": "bool",
          "name": "canRequest",
          "type": "bool"
        }
      ],
      "stateMutability": "view",
      "type": "function"
    },
    {
      "inputs": [
        {
          "internalType": "uint256",
          "name": "marketId",
          "type": "uint256"
        },
        {
          "internalType": "uint256",
          "name": "bnbAmount",
          "type": "uint256"
        }
      ],
      "name": "getBuyNoMultiplier",
      "outputs": [
        {
          "internalType": "uint256",
          "name": "multiplier",
          "type": "uint256"
        },
        {
          "internalType": "uint256",
          "name": "totalOut",
          "type": "uint256"
        },
        {
          "internalType": "uint256",
          "name": "totalFee",
          "type": "uint256"
        }
      ],
      "stateMutability": "view",
      "type": "function"
    },
    {
      "inputs": [
        {
          "internalType": "uint256",
          "name": "marketId",
          "type": "uint256"
        },
        {
          "internalType": "uint256",
          "name": "bnbAmount",
          "type": "uint256"
        }
      ],
      "name": "getBuyYesMultiplier",
      "outputs": [
        {
          "internalType": "uint256",
          "name": "multiplier",
          "type": "uint256"
        },
        {
          "internalType": "uint256",
          "name": "totalOut",
          "type": "uint256"
        },
        {
          "internalType": "uint256",
          "name": "totalFee",
          "type": "uint256"
        }
      ],
      "stateMutability": "view",
      "type": "function"
    },
    {
      "inputs": [
        {
          "internalType": "uint256",
          "name": "marketId",
          "type": "uint256"
        }
      ],
      "name": "getCurrentMultipliers",
      "outputs": [
        {
          "internalType": "uint256",
          "name": "yesMultiplier",
          "type": "uint256"
        },
        {
          "internalType": "uint256",
          "name": "noMultiplier",
          "type": "uint256"
        },
        {
          "internalType": "uint256",
          "name": "yesPrice",
          "type": "uint256"
        },
        {
          "internalType": "uint256",
          "name": "noPrice",
          "type": "uint256"
        }
      ],
      "stateMutability": "view",
      "type": "function"
    },
    {
      "inputs": [
        {
          "internalType": "uint256",
          "name": "marketId",
          "type": "uint256"
        },
        {
          "internalType": "address",
          "name": "user",
          "type": "address"
        }
      ],
      "name": "getMarketInvestment",
      "outputs": [
        {
          "internalType": "uint256",
          "name": "",
          "type": "uint256"
        }
      ],
      "stateMutability": "view",
      "type": "function"
    },
    {
      "inputs": [
        {
          "internalType": "uint256",
          "name": "marketId",
          "type": "uint256"
        }
      ],
      "name": "getNoPrice",
      "outputs": [
        {
          "internalType": "uint256",
          "name": "price",
          "type": "uint256"
        }
      ],
      "stateMutability": "view",
      "type": "function"
    },
    {
      "inputs": [
        {
          "internalType": "uint256",
          "name": "marketId",
          "type": "uint256"
        },
        {
          "internalType": "uint256",
          "name": "amountIn",
          "type": "uint256"
        },
        {
          "internalType": "bool",
          "name": "isYesIn",
          "type": "bool"
        }
      ],
      "name": "getSwapMultiplier",
      "outputs": [
        {
          "internalType": "uint256",
          "name": "multiplier",
          "type": "uint256"
        },
        {
          "internalType": "uint256",
          "name": "amountOut",
          "type": "uint256"
        },
        {
          "internalType": "uint256",
          "name": "fee",
          "type": "uint256"
        }
      ],
      "stateMutability": "view",
      "type": "function"
    },
    {
      "inputs": [
        {
          "internalType": "uint256",
          "name": "marketId",
          "type": "uint256"
        }
      ],
      "name": "getTradingInfo",
      "outputs": [
        {
          "components": [
            {
              "internalType": "uint256",
              "name": "yesMultiplier",
              "type": "uint256"
            },
            {
              "internalType": "uint256",
              "name": "noMultiplier",
              "type": "uint256"
            },
            {
              "internalType": "uint256",
              "name": "yesPrice",
              "type": "uint256"
            },
            {
              "internalType": "uint256",
              "name": "noPrice",
              "type": "uint256"
            },
            {
              "internalType": "uint256",
              "name": "totalLiquidity",
              "type": "uint256"
            }
          ],
          "internalType": "struct PredictionMarketHelper.TradingInfo",
          "name": "info",
          "type": "tuple"
        }
      ],
      "stateMutability": "view",
      "type": "function"
    },
    {
      "inputs": [
        {
          "internalType": "address",
          "name": "user",
          "type": "address"
        }
      ],
      "name": "getUserPositions",
      "outputs": [
        {
          "components": [
            {
              "internalType": "uint256",
              "name": "marketId",
              "type": "uint256"
            },
            {
              "internalType": "uint256",
              "name": "yesBalance",
              "type": "uint256"
            },
            {
              "internalType": "uint256",
              "name": "noBalance",
              "type": "uint256"
            },
            {
              "internalType": "uint256",
              "name": "totalInvested",
              "type": "uint256"
            },
            {
              "internalType": "uint256",
              "name": "bnbInvested",
              "type": "uint256"
            }
          ],
          "internalType": "struct PredictionMarketHelper.UserPosition[]",
          "name": "",
          "type": "tuple[]"
        }
      ],
      "stateMutability": "view",
      "type": "function"
    },
    {
      "inputs": [
        {
          "internalType": "address",
          "name": "user",
          "type": "address"
        }
      ],
      "name": "getUserTotalInvestment",
      "outputs": [
        {
          "internalType": "uint256",
          "name": "totalInvestment",
          "type": "uint256"
        }
      ],
      "stateMutability": "view",
      "type": "function"
    },
    {
      "inputs": [
        {
          "internalType": "uint256",
          "name": "marketId",
          "type": "uint256"
        }
      ],
      "name": "getYesPrice",
      "outputs": [
        {
          "internalType": "uint256",
          "name": "price",
          "type": "uint256"
        }
      ],
      "stateMutability": "view",
      "type": "function"
    },
    {
      "inputs": [],
      "name": "predictionMarket",
      "outputs": [
        {
          "internalType": "contract IPredictionMarketCore",
          "name": "",
          "type": "address"
        }
      ],
      "stateMutability": "view",
      "type": "function"
    }
  ],
  "bytecode": "0x60a03461012057601f611ed538819003918201601f19168301916001600160401b038311848410176101255780849260209460405283398101031261012057516001600160a01b038116908190036101205780156100db57608052604051611d99908161013c82396080518181816101370152818161019b0152818161033e015281816106380152818161074e015281816107fb015281816109ae01528181610c1101528181610f5e015281816110a00152818161117d015281816112d60152818161187001528181611957015281816119fa0152611bb30152f35b60405162461bcd60e51b815260206004820152601660248201527f496e76616c6964206d61726b65742061646472657373000000000000000000006044820152606490fd5b600080fd5b634e487b7160e01b600052604160045260246000fdfe608060408181526004918236101561001657600080fd5b600090813560e01c908162fc206d146112a75750806308226aab1461113b5780631133cfbd1461107157806321768e6914610ee85780632a6bc2dd14610be25780634b1f97ba1461096a5780635e5b8697146107bf578063736a8603146106f95780639ba85fae146106da578063ac1b233514610608578063bd303c2714610423578063c3546485146103fd578063ca48e631146103f8578063cc4999ea146103f8578063d3f55d2c1461030d578063dc2b54641461016a578063def114b6146101225763e18484f5146100e957600080fd5b3461011f57602036600319011261011f575061010760809235611b94565b92939091815194855260208501528301526060820152f35b80fd5b509034610166578160031936011261016657517f00000000000000000000000000000000000000000000000000000000000000006001600160a01b03168152602090f35b5080fd5b503461011f57610179366114ae565b90916101868215156117ba565b835163b1283e7760e01b8152858101939093527f00000000000000000000000000000000000000000000000000000000000000006001600160a01b0316928181602481875afa938415610303578690839284966102c5575b506020908751928380926324a9d85360e01b82525afa9081156102bb578392610239926102339263ffffffff969161028d575b506102226127109687921688611810565b049661022e8888611843565b611cd8565b84611553565b9582870292878404148715171561027a575050610276929161025a91611823565b9251938493846040919493926060820195825260208201520152565b0390f35b634e487b7160e01b825260119052602490fd5b6102ae915060203d81116102b4575b6102a681836114f6565b8101906117f4565b38610211565b503d61029c565b86513d85823e3d90fd5b6102e6919650602093503d8086833e6102de81836114f6565b8101906116a6565b505050505050505050509a985096505050505050509295906101de565b85513d84823e3d90fd5b503461011f5761031c366114ae565b90916103298215156117ba565b835163b1283e7760e01b8152858101939093527f00000000000000000000000000000000000000000000000000000000000000006001600160a01b03168184602481845afa908115610303578690839584936103c257506020908751928380926324a9d85360e01b82525afa9081156102bb578392610239926102339263ffffffff969161028d57506102226127109687921688611810565b602096506103db9193503d8086833e6102de81836114f6565b505050505050505050509d985096505050505050509592906101de565b61145b565b503461011f57602036600319011261011f575061041c60209235611937565b9051908152f35b5090346101665760208060031936011261060457833567ffffffffffffffff811161060057916104588592933690840161142a565b9261046284611560565b9361046f845195866114f6565b808552601f1961047e82611560565b01875b8181106105e1575050865b81811061050557505050508051928080850192818652845180945285019301945b8281106104ba5784840385f35b9091928260a0826104f66001948a5160808091805184526020810151602085015260408101516040850152606081015160608501520151910152565b019601910194929190946104ad565b6105158183869a9997989a611d53565b865163ca48e63160e01b81529035848201529060a08083602481305afa89918161059c575b50610588935061059257508651610550816114c4565b6127108082528782015261138880898301526060820152886080820152610577828b6115e9565b52610582818a6115e9565b5061152e565b969493959661048c565b610577828b6115e9565b809250939092933d83116105da575b6105b581836114f6565b810191818303126105d6576105889392916105cf916115a3565b908b61053a565b8980fd5b503d6105ab565b9680959698976105ef611578565b82828c010152019795949697610481565b8380fd5b8280fd5b5091903461060457602036600319011261060457805163b1283e7760e01b815282359281019290925282826024817f00000000000000000000000000000000000000000000000000000000000000006001600160a01b03165afa9182156106d05792602093818094610698575b505060ff16600214918261068d575b50519015158152f35b421115915038610684565b60ff945060029250906106b4913d8091833e6102de81836114f6565b50509f5050505050505050505050505092969350505091610675565b81513d85823e3d90fd5b503461011f57602036600319011261011f575061041c60209235611850565b509190346106045780600319360112610604578061074a92610719611414565b8251637e73b64d60e01b815282359281019283526001600160a01b0390911660208301529384918291604090910190565b03817f00000000000000000000000000000000000000000000000000000000000000006001600160a01b03165afa9182156106d0576020939261078f575b5051908152f35b816107b09293503d84116107b8575b6107a881836114f6565b810190611518565b509038610788565b503d61079e565b5090346101665780600319360112610166576107d9611414565b815163b1283e7760e01b81528435858201526001600160a01b039484826024817f00000000000000000000000000000000000000000000000000000000000000008a165afa928315610960578592869461092b575b5086855194816370a0823160e01b93848852169485858801528660248160209c8d94165afa9586156109215790899493929189976108e5575b509060249291885196879586948552840152165afa9384156108da5780946108a8575b5050159182159261089e5750519015158152f35b1515915038610684565b909193508482813d83116108d3575b6108c181836114f6565b8101031261011f57505191388061088a565b503d6108b7565b8351903d90823e3d90fd5b8581939495969298503d831161091a575b61090081836114f6565b8101031261091657519488939291906024610867565b8780fd5b503d6108f6565b87513d8a823e3d90fd5b9093506109439192503d8087833e6102de81836114f6565b50505050505050505050505097965094505050505091923861082e565b84513d87823e3d90fd5b50919034610604578060031936011261060457813591610988611414565b610990611578565b50825163b1283e7760e01b81528281018590526001600160a01b03917f0000000000000000000000000000000000000000000000000000000000000000831691908782602481865afa928315610bd85788928994610ba3575b508651926370a0823160e01b8085528680851692838a8801528660248160209b8c94165afa958615610b995790889392918d97610b61575b50906024918b51988994859384528c840152165afa938415610b575790888893928b96610b1a575b508351637e73b64d60e01b81529788019081526001600160a01b0390921660208301528691829081906040015b03915afa938415610b105790610aee959493929160a09894610af0575b50610a9e8282611553565b92855197610aab896114c4565b8852870152838601526060850152608084015251809260808091805184526020810151602085015260408101516040850152606081015160608501520151910152565bf35b610b08919450853d87116107b8576107a881836114f6565b509238610a93565b85513d89823e3d90fd5b9350509593508482813d8311610b50575b610b3581836114f6565b81010312610b4c57610a7695888893519597610a49565b8880fd5b503d610b2b565b87513d8b823e3d90fd5b848193959298503d8311610b92575b610b7a81836114f6565b81010312610b8e5751948792906024610a21565b8b80fd5b503d610b70565b8a513d8e823e3d90fd5b909350610bbb9192503d808a833e6102de81836114f6565b5050505050505050505050509796509450505050509192386109e9565b86513d8a823e3d90fd5b5090346101665760208060031936011261060457610bfe6113f9565b825163406ef2ef60e01b815290828287817f00000000000000000000000000000000000000000000000000000000000000006001600160a01b03165afa918215610960578592610eb5575b50849593929493865b838110610e075750610c6385611560565b94610c70855196876114f6565b808652610c7f601f1991611560565b01875b818110610de85750508691875b848110610d095750505050508051928080850192818652845180945285019301945b828110610cbe5784840385f35b9091928260a082610cfa6001948a5160808091805184526020810151602085015260408101516040850152606081015160608501520151910152565b01960191019492919094610cb1565b855163258fcbdd60e11b81528381018281526001600160a01b0384166020820152979998969760a091908290829081906040010381305afa9182918b93610da9575b5050610d66575b50610d5c9061152e565b9795949697610c8f565b8681015115801590610d9d575b15610d525784610d9691610d8b610d5c94978d6115e9565b52610582818c6115e9565b9390610d52565b50878101511515610d73565b90809293503d8311610de1575b610dc081836114f6565b81019181830312610ddd5790610dd5916115a3565b903880610d4b565b8a80fd5b503d610db6565b968095969897610df6611578565b82828c010152019795949697610c82565b8451635e5b869760e01b81528281018281526001600160a01b038516602082015296989795968690829081906040010381305afa889181610e7d575b50610e5d575b50610e539061152e565b9694939596610c52565b610e68575b38610e49565b96610e75610e539161152e565b979050610e62565b9091508681813d8311610eae575b610e9581836114f6565b81010312610b4c57518015158103610b4c579038610e43565b503d610e8b565b9091508281813d8311610ee1575b610ecd81836114f6565b81010312610edd57519038610c49565b8480fd5b503d610ec3565b5082903461011f578260031936011261011f5781359060243567ffffffffffffffff8111610166578491610f2085923690840161142a565b9490610f2b86611560565b91610f38865193846114f6565b868352610f4487611560565b6020978489019691601f19013688376001600160a01b03907f0000000000000000000000000000000000000000000000000000000000000000821690875b818110610fcb575050505050505083519485948186019282875251809352850193925b828110610fb457505050500390f35b835185528695509381019392810192600101610fa5565b610fdc8183899e9b9a9c9d9e611d53565b358481168103610b4c578c51637e73b64d60e01b81528681018881526001600160a01b039092166020830152908d90829081906040010381875afa908115611067579061103e92918e8b92611049575b5050611038828d6115e9565b5261152e565b9a999896979a610f82565b61105f9250803d106107b8576107a881836114f6565b508e8e61102c565b8d513d8b823e3d90fd5b50903461016657602036600319011261016657805163b1283e7760e01b815283359381019390935281836024817f00000000000000000000000000000000000000000000000000000000000000006001600160a01b03165afa8015611130576020938380926110fb575b505060ff161591826110f05750519015158152f35b421015915038610684565b60ff945061111392503d8091833e6102de81836114f6565b5050505050505050505050505050509593509150509290386110db565b5051903d90823e3d90fd5b503461011f57606036600319011261011f5760243560443591821515830361011f576111688215156117ba565b835163b1283e7760e01b8152853586820152927f00000000000000000000000000000000000000000000000000000000000000006001600160a01b03168285602481845afa9081156102bb57879084968593611271575b506020908851928380926324a9d85360e01b82525afa90811561126757908493929163ffffffff9591611249575b506111fe6127109586921687611810565b049561120a8787611843565b92156112395761023992611cd8565b82870292878404148715171561027a575050610276929161025a91611823565b9061124392611cd8565b95611219565b611261915060203d81116102b4576102a681836114f6565b386111ed565b87513d86823e3d90fd5b6020975061128a9193503d8087833e6102de81836114f6565b505050505050505050509e985096505050505050509692906111bf565b8484843461011f5760209384600319360112610166576112c56113f9565b63406ef2ef60e01b825291938492907f00000000000000000000000000000000000000000000000000000000000000006001600160a01b03169087848281855afa9384156113ef5785946113c0575b5084939291905b83861061132b5788888851908152f35b8651637e73b64d60e01b81528082018781526001600160a01b03851660208201529698959694959394929391929091908890839081906040010381875afa9182156113b657916113869161138c938992611396575b50611553565b9761152e565b949392919061131b565b6113ae9192508a3d8c116107b8576107a881836114f6565b50908c611380565b88513d89823e3d90fd5b9093508781813d83116113e8575b6113d881836114f6565b81010312610edd57519288611314565b503d6113ce565b86513d87823e3d90fd5b600435906001600160a01b038216820361140f57565b600080fd5b602435906001600160a01b038216820361140f57565b9181601f8401121561140f5782359167ffffffffffffffff831161140f576020808501948460051b01011161140f57565b3461140f57602036600319011261140f5760a06114796004356119d0565b610aee604051809260808091805184526020810151602085015260408101516040850152606081015160608501520151910152565b604090600319011261140f576004359060243590565b60a0810190811067ffffffffffffffff8211176114e057604052565b634e487b7160e01b600052604160045260246000fd5b90601f8019910116810190811067ffffffffffffffff8211176114e057604052565b919082604091031261140f576020825192015190565b600019811461153d5760010190565b634e487b7160e01b600052601160045260246000fd5b9190820180921161153d57565b67ffffffffffffffff81116114e05760051b60200190565b60405190611585826114c4565b60006080838281528260208201528260408201528260608201520152565b91908260a091031261140f576040516115bb816114c4565b6080808294805184526020810151602085015260408101516040850152606081015160608501520151910152565b80518210156115fd5760209160051b010190565b634e487b7160e01b600052603260045260246000fd5b51906001600160a01b038216820361140f57565b919080601f8401121561140f5782519067ffffffffffffffff82116114e05760405191602091611660601f8301601f19168401856114f6565b81845282828701011161140f5760005b81811061168557508260009394955001015290565b8581018301518482018401528201611670565b519060ff8216820361140f57565b6102808183031261140f576116ba81611613565b9260208201519167ffffffffffffffff9283811161140f57846116de918301611627565b93604082015184811161140f57816116f7918401611627565b9360608301519361170a60808501611698565b9361171760a08201611698565b9361172460c08301611613565b9361173160e08401611613565b9361010084015193610120810151936101408201519361016083015193610180840151936101a0810151936117696101c08301611613565b936101e083015181811161140f5782611783918501611627565b93610200840151936102208101519361179f6102408301611613565b9361026083015190811161140f576117b79201611627565b90565b156117c157565b60405162461bcd60e51b815260206004820152600b60248201526a16995c9bc8185b5bdd5b9d60aa1b6044820152606490fd5b9081602091031261140f575163ffffffff8116810361140f5790565b8181029291811591840414171561153d57565b811561182d570490565b634e487b7160e01b600052601260045260246000fd5b9190820391821161153d57565b60405163b1283e7760e01b815260048101919091526000919082816024817f00000000000000000000000000000000000000000000000000000000000000006001600160a01b03165afa801561192c57839184916118f7575b506118b49082611553565b9081156118ee57612710908181029181830414901517156118da576117b7929350611823565b634e487b7160e01b84526011600452602484fd5b50611388925050565b6118b4925061191091503d8086833e6102de81836114f6565b50505050505050505050999850965050505050505091906118a9565b6040513d85823e3d90fd5b60405163b1283e7760e01b815260048101919091526000919082816024817f00000000000000000000000000000000000000000000000000000000000000006001600160a01b03165afa90811561192c578390849261199c575b50816118b491611553565b6118b492506119b591503d8086833e6102de81836114f6565b50505050505050505050999850965050505050505090611991565b6119d8611578565b506040805163b1283e7760e01b815260048101929092526000919082826024817f00000000000000000000000000000000000000000000000000000000000000006001600160a01b03165afa80156106d05783928491611b61575b50611a3e8184611553565b928315611b31576127109081810290808204831490151715611b1d5784611a6491611823565b91818102918183041490151715611b095783611a7f91611823565b91811580611aff57611aeb57816402540be40004945b831580611ae157611acd5750826402540be400045b815195611ab6876114c4565b865260208601528401526060830152608082015290565b634e487b7160e01b81526012600452602490fd5b5050600019611aaa565b634e487b7160e01b85526012600452602485fd5b5060001994611a95565b634e487b7160e01b85526011600452602485fd5b634e487b7160e01b86526011600452602486fd5b50508051929150611b41836114c4565b612710808452602084015261138880918401526060830152608082015290565b9050611b789192503d8085833e6102de81836114f6565b5050505050505050505099985096505050505050509138611a33565b60405163b1283e7760e01b8152600481019190915260009182826024817f00000000000000000000000000000000000000000000000000000000000000006001600160a01b03165afa91821561192c5783908493611ca6575b50611bf88382611553565b908115611c94576127109081810290808204831490151715611b1d5782611c1e91611823565b93818102918183041490151715611b095790611c3991611823565b90821580611c8a57611c7657826402540be40004935b821580611c6b57611acd5750816402540be40004935b93929190565b505060001993611c65565b634e487b7160e01b84526012600452602484fd5b5060001993611c4f565b50612710935083925061138891829150565b9050611cbd9192503d8085833e6102de81836114f6565b50505050505050505050999850965050505050505038611bed565b9182151580611d4a575b80611d41575b15611d0a5782611cfe611d04926117b795611810565b92611553565b90611823565b60405162461bcd60e51b815260206004820152600f60248201526e496e76616c696420616d6f756e747360881b6044820152606490fd5b50801515611ce8565b50811515611ce2565b91908110156115fd5760051b019056fea2646970667358221220405e6ac0210a3de446491bb17ad013aa4b378aa09409f2ae6d9231f26ac275d564736f6c63430008140033",
  "linkReferences": {},
  "deployedLinkReferences": {}
}